:1000000000320020312C0000F39100001D2C000074
:100010001D2C00001D2C00001D2C00000000000005
:10002000000000000000000000000000392A00006D
:100030001D2C000000000000E52900001D2C000020
:100040009D2900009D2900009D2900009D29000098
:100050009D2900009D2900009D2900009D29000088
:100060009D2900009D2900009D2900009D29000078
:100070009D2900009D2900009D2900009D29000068
:100080009D2900009D2900009D2900009D29000058
:100090009D2900009D2900009D2900009D29000048
:1000A0009D2900009D2900009D2900009D29000038
:1000B0009D2900009D2900009D2900009D29000028
:1000C0009D2900009D2900009D2900009D29000018
:1000D0009D2900009D2900009D2900009D29000008
:1000E0009D2900009D2900009D2900009D290000F8
:1000F0009D2900009D2900009D2900009D290000E8
:1001000081F0004102E000BF83F0004330B54FEAC8
:1001100041044FEA430594EA050F08BF90EA020F35
:100120001FBF54EA000C55EA020C7FEA645C7FEAC8
:10013000655C00F0E2804FEA5454D4EB5555B8BFEB
:100140006D420CDD2C4480EA020281EA030382EA5C
:10015000000083EA010180EA020281EA0303362DEE
:1001600088BF30BD11F0004F4FEA01314FF4801CC1
:100170004CEA113102D0404261EB410113F0004FD3
:100180004FEA03334CEA133302D0524263EB43038A
:1001900094EA050F00F0A780A4F10104D5F1200E28
:1001A0000DDB02FA0EFC22FA05F2801841F1000183
:1001B00003FA0EF2801843FA05F359410EE0A5F157
:1001C00020050EF1200E012A03FA0EFC28BF4CF088
:1001D000020C43FA05F3C01851EBE37101F000453E
:1001E00007D54FF0000EDCF1000C7EEB00006EEB4B
:1001F0000101B1F5801F1BD3B1F5001F0CD34908D5
:100200005FEA30004FEA3C0C04F101044FEA44522B
:1002100012F5800F80F09A80BCF1004F08BF5FEAB2
:10022000500C50F1000041EB045141EA050130BD92
:100230005FEA4C0C404141EB0101013C28BFB1F5A4
:10024000801FE9D291F0000F04BF01460020B1FAEF
:1002500081F308BF2033A3F10B03B3F120020CDAC2
:100260000C3208DD02F1140CC2F10C0201FA0CF0A0
:1002700021FA02F10CE002F11402D8BFC2F1200C05
:1002800001FA02F120FA0CFCDCBF41EA0C019040BB
:10029000E41AA2BF01EB0451294330BD6FEA040404
:1002A0001F3C1CDA0C340EDC04F11404C4F12002EF
:1002B00020FA04F001FA02F340EA030021FA04F301
:1002C00045EA030130BDC4F10C04C4F1200220FA58
:1002D00002F001FA04F340EA0300294630BD21FA96
:1002E00004F0294630BD94F0000F83F4801306BF5C
:1002F00081F480110134013D4EE77FEA645C18BF50
:100300007FEA655C29D094EA050F08BF90EA020FE6
:1003100005D054EA000C04BF1946104630BD91EADE
:10032000030F1EBF0021002030BD5FEA545C05D1E1
:100330004000494128BF41F0004130BD14F5800420
:100340003CBF01F5801130BD01F0004545F0FE4194
:1003500041F470014FF0000030BD7FEA645C1ABFC9
:10036000194610467FEA655C1CBF0B46024650EA00
:10037000013406BF52EA033591EA030F41F400212C
:1003800030BD00BF90F0000F04BF0021704730B5B2
:100390004FF4806404F132044FF000054FF0000187
:1003A00050E700BF90F0000F04BF0021704730B548
:1003B0004FF4806404F1320410F0004548BF40421D
:1003C0004FF000013EE700BF42004FEAE2014FEA72
:1003D00031014FEA02701FBF12F07F4393F07F4F4D
:1003E00081F06051704732F07F4208BF704793F050
:1003F0007F4F04BF41F40021704730B54FF4607463
:1004000001F0004521F000411CE700BF50EA010265
:1004100008BF704730B54FF000050AE050EA01020E
:1004200008BF704730B511F0004502D5404261EB7E
:1004300041014FF4806404F132045FEA915C3FF4BF
:10044000D8AE4FF003025FEADC0C18BF03325FEA5C
:10045000DC0C18BF033202EBDC02C2F1200300FA0D
:1004600003FC20FA02F001FA03FE40EA0E0021FA32
:1004700002F11444BDE600BF70B54FF0FF0C4CF420
:10048000E06C1CEA11541DBF1CEA135594EA0C0FD2
:1004900095EA0C0F00F0DEF82C4481EA030621EA0D
:1004A0004C5123EA4C5350EA013518BF52EA033548
:1004B00041F4801143F4801338D0A0FB02CE4FF0FA
:1004C0000005E1FB02E506F00042E0FB03E54FF02A
:1004D0000006E1FB03569CF0000F18BF4EF0010E22
:1004E000A4F1FF04B6F5007F64F5407404D25FEA1E
:1004F0004E0E6D4146EB060642EAC62141EA5551D1
:100500004FEAC52040EA5E504FEACE2EB4F1FD0C12
:1005100088BFBCF5E06F1ED8BEF1004F08BF5FEA90
:10052000500E50F1000041EB045170BD06F0004642
:1005300046EA010140EA020081EA0301B4EB5C04EF
:10054000C2BFD4EB0C0541EA045170BD41F48011E7
:100550004FF0000E013C00F3AB8014F1360FDEBF0C
:10056000002001F0004170BDC4F10004203C35DAE8
:100570000C341BDC04F11404C4F1200500FA05F36B
:1005800020FA04F001FA05F240EA020001F000420C
:1005900021F0004110EBD37021FA04F642EB060182
:1005A0005EEA430E08BF20EAD37070BDC4F10C04AC
:1005B000C4F1200500FA04F320FA05F001FA04F270
:1005C00040EA020001F0004110EBD37041F100015C
:1005D0005EEA430E08BF20EAD37070BDC4F1200567
:1005E00000FA05F24EEA020E20FA04F301FA05F2CF
:1005F00043EA020321FA04F001F0004121FA04F277
:1006000020EA020000EBD3705EEA430E08BF20EA46
:10061000D37070BD94F0000F0FD101F00046400080
:1006200041EB010111F4801F08BF013CF7D041EA02
:10063000060195F0000F18BF704703F00046520006
:1006400043EB030313F4801F08BF013DF7D043EAD7
:100650000603704794EA0C0F0CEA135518BF95EA8D
:100660000C0F0CD050EA410618BF52EA4306D1D114
:1006700081EA030101F000414FF0000070BD50EA33
:10068000410606BF1046194652EA430619D094EABD
:100690000C0F02D150EA013613D195EA0C0F05D1A7
:1006A00052EA03361CBF104619460AD181EA0301FB
:1006B00001F0004141F0FE4141F470014FF00000B3
:1006C00070BD41F0FE4141F4780170BD70B54FF04E
:1006D000FF0C4CF4E06C1CEA11541DBF1CEA1355CE
:1006E00094EA0C0F95EA0C0F00F0A7F8A4EB0504B0
:1006F00081EA030E52EA03354FEA013100F08880A7
:100700004FEA03334FF0805545EA131343EA12636F
:100710004FEA022245EA111545EA10654FEA002624
:100720000EF000419D4208BF964244F1FD0404F5DD
:10073000407402D25B084FEA3202B61A65EB030539
:100740005B084FEA32024FF480104FF4002CB6EBF6
:10075000020E75EB030E22BFB61A754640EA0C0076
:100760005B084FEA3202B6EB020E75EB030E22BFB6
:10077000B61A754640EA5C005B084FEA3202B6EBF7
:10078000020E75EB030E22BFB61A754640EA9C00B6
:100790005B084FEA3202B6EB020E75EB030E22BF86
:1007A000B61A754640EADC0055EA060E18D04FEA44
:1007B000051545EA16754FEA06164FEAC30343EAE4
:1007C00052734FEAC2025FEA1C1CC0D111F4801FB1
:1007D0000BD141EA00014FF000004FF0004CB6E7AA
:1007E00011F4801F04BF01430020B4F1FD0C88BF49
:1007F000BCF5E06F3FF6AFAEB5EB030C04BFB6EB54
:10080000020C5FEA500C50F1000041EB045170BD46
:100810000EF0004E4EEA113114EB5C04C2BFD4EB73
:100820000C0541EA045170BD41F480114FF0000EF7
:10083000013C90E645EA060E8DE60CEA135594EA73
:100840000C0F08BF95EA0C0F3FF43BAF94EA0C0F76
:100850000AD150EA01347FF434AF95EA0C0F7FF4EB
:1008600025AF104619462CE795EA0C0F06D152EA3F
:1008700003353FF4FDAE1046194622E750EA410623
:1008800018BF52EA43067FF4C5AE50EA41047FF434
:100890000DAF52EA43057FF4EBAE12E74FF0FF3C99
:1008A00006E000BF4FF0010C02E000BF4FF0010C6A
:1008B0004DF804CD4FEA410C7FEA6C5C4FEA430CE3
:1008C00018BF7FEA6C5C1BD001B050EA410C0CBF32
:1008D00052EA430C91EA030F02BF90EA020F002094
:1008E000704710F1000F91EA030F58BF994208BFFB
:1008F00090422CBFD8176FEAE37040F001007047B8
:100900004FEA410C7FEA6C5C02D150EA013C07D10E
:100910004FEA430C7FEA6C5CD6D152EA033CD3D059
:100920005DF8040B704700BF8446104662468C4653
:100930001946634600E000BF01B5FFF7B7FF002886
:1009400048BF10F1000F01BD4DF808EDFFF7F4FFAF
:100950000CBF012000205DF808FB00BF4DF808ED3A
:10096000FFF7EAFF34BF012000205DF808FB00BF5D
:100970004DF808EDFFF7E0FF94BF012000205DF87F
:1009800008FB00BF4DF808EDFFF7CEFF94BF012034
:1009900000205DF808FB00BF4DF808EDFFF7C4FF2D
:1009A00034BF012000205DF808FB00BF4FEA410280
:1009B00012F5001215D211D56FF47873B3EB6252B1
:1009C00012D94FEAC12343F0004343EA505311F0D8
:1009D000004F23FA02F018BF404270474FF000006A
:1009E000704750EA013005D111F0004008BF6FF0A8
:1009F000004070474FF00000704700BF53B94AB93C
:100A0000002908BF00281CBF4FF0FF314FF0FF3016
:100A100000F06CB9ADF1080C6DE904CE00F006F8F9
:100A2000DDF804E0DDE9022304B070472DE9F0476A
:100A3000089E0D4604468E46002B40F082808A4276
:100A4000174646D9B2FA82F24AB1C2F1200105FA3C
:100A500002F320FA01F1974041EA030E94404FEA75
:100A60001748230CBEFBF8FCB9B208FB1CEE43EAA6
:100A70000E430CFB01F098420AD9FB180CF1FF352C
:100A800080F01681984240F21381ACF1020C3B4495
:100A90001B1AA4B2B3FBF8F008FB103344EA03447A
:100AA00000FB01F1A14209D93C1900F1FF3380F0AC
:100AB0000181A14240F2FE8002383C44641A40EABF
:100AC0000C4000211EB1D4400023C6E90043BDE81C
:100AD000F08702B9FFDEB2FA82F2002A4FD1CB1BB7
:100AE0004FEA174E1FFA87F80121B3FBFEFC250CD5
:100AF0000EFB1C3345EA034508FB0CF3AB4207D958
:100B00007D190CF1FF3002D2AB4200F2E78084463F
:100B1000ED1AA3B2B5FBFEF00EFB105543EA0544F7
:100B200008FB00F8A04507D93C1900F1FF3302D2B9
:100B3000A04500F2D7801846A4EB080440EA0C4018
:100B4000C0E78B4208D9002E00F0AF800021C6E933
:100B500000050846BDE8F087B3FA83F100294BD1C0
:100B6000AB4202D3824200F2B780841A65EB0303E2
:100B700001209E46002EAAD0C6E9004EA7E7C2F18A
:100B8000200C01FA02F3974020FA0CF04FEA174EBE
:100B900021FA0CFC1843BCFBFEF1050C0EFB11CC3A
:100BA0001FFA87F845EA0C4501FB08F3AB4204FA4B
:100BB00002F409D97D1901F1FF3C80F08B80AB4232
:100BC00040F2888002393D44EB1A85B2B3FBFEF057
:100BD0000EFB103345EA034500FB08F3AB4207D98F
:100BE0007D1900F1FF3C71D2AB426FD902383D4410
:100BF000EB1A40EA014178E7C1F1200C8B4022FA60
:100C00000CF71F4320FA0CF405FA01F34FEA174ED4
:100C100025FA0CF51C43230CB5FBFEF91FFA87F8E7
:100C20000EFB195543EA054509FB08FAAA4502FAE5
:100C300001F200FA01F308D97D1909F1FF3047D21A
:100C4000AA4545D9A9F102093D44A5EB0A05A4B27C
:100C5000B5FBFEF00EFB105544EA054400FB08F816
:100C6000A04507D93C1900F1FF352DD2A0452BD95D
:100C700002383C4440EA0940A4EB0804A0FB028986
:100C80004C45C6464D4619D316D05EB1B3EB0E02A5
:100C900064EB050404FA0CFCCA404CEA0202CC40A6
:100CA000C6E900240021BDE8F087314630460EE752
:100CB000AC46EDE6184601E74345E6D2B8EB020E36
:100CC00069EB07050138E0E72846D3E760468FE780
:100CD0008146BAE7614677E708464BE7ACF1020C7C
:100CE0003D4415E702383C4426E700BF704700BF8B
:100CF0002DE9F84FDFF8A8B0DFF8A8A0DFF8A8804A
:100D00004FF0FF324FF0FF33584608F06FF90023E1
:100D10004246184652F8041B01330A2B0844F9D105
:100D200090FBF3F0FFF73EFB19A3D3E90023044641
:100D30000D46FFF7A1FB02460B4606460F4620462E
:100D40002946FFF7E3F9FFF731FE32463B4681467D
:100D500029462046FFF7D8F9FFF728FE0023194659
:100D60001A4658F8044B4C4501DB844201DD21440E
:100D7000013201330A2BF4D191FBF2F10648CAF893
:100D8000001008F010FA054806F04AFEB6E700BF6A
:100D90009A9999999999B93FC69F0000980800209F
:100DA00080080020DC070020B407002000000000BD
:100DB0002DE9F84F44A7D7E90067DFF84491464C86
:100DC0004FF0FF334FF0FF32484608F00FF900F0C4
:100DD0006FFA424942480B68012B0BD1414D2B68F9
:100DE000042B07DD053B2B60236800220A600260AC
:100DF0005A1D22600368012B0BD13A4D2B685F2BE3
:100E000007DC05332B602368002202600A605A1F4A
:100E1000226021683448DFF8EC80DFF8ECA008F0AD
:100E2000C2F92368DAF80000C3EB83234FF0640BA8
:100E300093FBFBFBC8F800B0FFF7B4FA0446584632
:100E40000D46FFF7AFFA22A3D3E90023FFF714FB07
:100E500002460B4620462946FFF780FD70B1234A23
:100E6000116840F2F933994208DC21480368053BD8
:100E7000036005311F48116008F095F9DAF80000A9
:100E8000FFF790FA0446D8F800000D46FFF78AFAFB
:100E900032463B46FFF7F0FA02460B46204629460B
:100EA000FFF77AFD60B1114A1168042908DD104886
:100EB00003680533036005390F48116008F073F9C2
:100EC0000E4806F0ADFD7AE7CDCCCCCCCCCCF03FD3
:100ED000666666666666EE3FB4000020F80700208E
:100EE000FC070020E0070020A5A20000B8000020B9
:100EF000E8070020D3A20000F3A20000B008002001
:100F000098080020E4070020DC07002008B508F05E
:100F1000BDFB0146034808F046F9034B01221A6065
:100F200008BD00BF249E0000F007002008B508F0AF
:100F3000ADFB0146034808F036F9034B01221A6065
:100F400008BD00BF399E0000F407002008B508F076
:100F50009DFB0146034808F026F9034B01221A6065
:100F600008BD00BF4E9E0000F807002008B508F03D
:100F70008DFB0146034808F016F9034B01221A6065
:100F800008BD00BF639E0000FC0700202DE9F04F64
:100F9000064687B00F46836804AA5B680D21984710
:100FA000039090BBDDE9044B4FF47A73A4FB0389F3
:100FB00003FB0B99184A002340464946FFF71EFDE4
:100FC000164B4FF0FF324B4508BF424582461FD3B8
:100FD000A7FB044507FB0B550F4A00232046294673
:100FE000FFF70CFD0D4A4FF0FF31AA4208BFA142A6
:100FF00003460DD3B2680399009114680D2152463F
:101000003046A04707B0BDE8F08F6FF00400F9E765
:101010006FF08500F6E700BF40420F003F420F002F
:1010200043682DE9F0411B68D0F808800769012664
:101030008E401E4204460D460ED10E490E4A0F4800
:1010400040F2FD2308F0AFF80D4808F0ACF80A486C
:1010500040F2FD2107F0D0FF3B6823EA06063E6020
:10106000D8F80030294620464FF48872BDE8F04198
:10107000184700BFA29E0000789E0000E09E00007E
:10108000FD9E000043682DE9F0411B688768D0F899
:10109000108001268E401E4204460D460ED1104996
:1010A000104A114840F29D2308F07DF80F4808F0DF
:1010B0007AF80C4840F29D2107F09EFFD8F80030E6
:1010C0001E42BE6929462046B44618BF4FF400337D
:1010D000BDE8F04108BF4FF480234FF4A0326047D1
:1010E000A29E0000789E0000E09E0000FD9E000091
:1010F0002DE9F04FDFF8B8A0DFF8B8B0254D87B084
:101100004FF0FF324FF0FF33504607F06FFF584665
:1011100008F049F8204FDFF8A080DFF8A090002603
:101120001422002101A808F097F80223D8F8000043
:101130000493CDE902350A238DF81430A8B9174875
:1011400008F031F84FF0FF342146484608F02BF8FC
:101150002988134847F8041B013608F024F80A2EA2
:10116000DED1104806F05CFCCAE7836801A95B6821
:101170009847044620B101460B4808F014F8E3E70D
:101180002B88B3F5806FE3D3084808F00CF82C8067
:10119000DEE700BF600F0020B40700202F9F000093
:1011A000C29F0000800800205E9F0000A79F0000F3
:1011B000500800200F9F0000EC0700207E9F0000D9
:1011C000F8B5164804F00CFD044608B90368FFDEC4
:1011D00001681348134F144E144D07F0E4FF4FF00D
:1011E000FF324FF0FF33384607F000FF31682846E2
:1011F00007F0D9FF0E4B19684FF47A734B43204622
:101200006421B3FBF1F1FFF7C1FE01460028E6D0EF
:10121000BDE8F840074807F0C6BF00BFF99F0000CF
:10122000FF9F000068080020B000002017A0000009
:10123000B00700203CA00000F8B5164804F0D0FC30
:10124000044608B90368FFDE01681348134F144EC3
:10125000144D07F0A8FF4FF0FF324FF0FF33384630
:1012600007F0C4FE3168284607F09DFF0E4B196851
:101270004FF47A734B43204640F2FF31B3FBF1F158
:10128000FFF784FE01460028E5D0BDE8F840074896
:1012900007F089BFF99F0000FF9F0000B008002001
:1012A000B800002061A00000E80700203CA000007A
:1012B000F8B53C4804F094FC044620B9BDE8F84079
:1012C000394807F070BF394807F06DFF0B21204601
:1012D000FFF7A6FE011E04DA3548BDE8F84007F026
:1012E00062BF0C212046FFF79BFE011E01DA314848
:1012F000F3E718212046FFF793FE011E01DA2E487E
:10130000EBE719212046FFF78BFE011E01DA2B487F
:10131000E3E70B212046FFF7B5FE014608B1284858
:10132000DBE70C212046FFF7ADFE014608B125485A
:10133000D3E718212046FFF7A5FE014608B1224851
:10134000CBE719212046FFF79DFE014608B11F4853
:10135000C3E71F491F4B204F4B604FF400638B6066
:101360001E4B1F4E7B604FF48053BB601D4B1E4DC8
:1013700073604FF08073B3601C4B6B6020464FF07E
:101380000073AB6007F02AFE3946204607F026FEC0
:101390003146204607F022FE29462046BDE8F840A7
:1013A00007F01CBE86A000008DA00000AEA00000CB
:1013B000CBA00000F2A0000019A1000040A1000095
:1013C00067A100009EA10000D5A100000CA20000B2
:1013D000000800200D0F00000C0800202D0F000059
:1013E000180800204D0F0000240800206D0F000099
:1013F0002DE9F84F08F075FA4FF47A730A46A0FB0E
:10140000030103FB0211C30B384EDFF8F48043EAFB
:101410004143CA0B13F1640442F1000537464046CC
:1014200007F0C1FEFFF744FF3268DFF8D8A0DFF80D
:10143000D890DFF8D8B0012A01BF00233360CAF882
:101440000020C9F80030DBF80030012B01BF00227A
:10145000CBF80020CAF80020C9F80030DAF80030D4
:10146000012B09D1DAF800102148D9F8002007F043
:101470009AFE204806F0D4FAD9F80030012B09D1A1
:10148000DAF800101C48D9F8002007F08CFE1B4841
:1014900006F0C6FA00233B60CBF8003008F021FAD2
:1014A0004FF47A730A46A0FB030103FB0211C20B3F
:1014B00042EA4142CB0BA24273EB0501AFDAA4EB47
:1014C000020C2CEAEC7C4FF4004E40F2E730002195
:1014D0004FF47A720023CEFB0C01FFF78FFA06F06F
:1014E00033F9643445F1000599E700BFF0070020A7
:1014F00060A20000380800206EA200005008002002
:1015000043A200003008002034080020F407002027
:1015100070B51A4C1A4E25464FF0FF334FF0FF328C
:10152000304607F063FD174807F03DFEFFF7C0FEA9
:101530002368012B0BD1144A1368042B07DD053BEC
:101540001360124A13680021053321601360104AAA
:101550001368012B0BD10C490B685F2B07DC05339B
:101560000B600A490B680020053B10600B600023EC
:101570002B601360074806F053FACDE7F807002008
:101580003808002080A20000B0070020B000002032
:10159000FC07002068080020F0B589B04E484F4C89
:1015A00004F01EFB206010B94D4807F0FCFD2068D8
:1015B00083684C491B689847014610B14A4807F0B8
:1015C000F2FD4A4801F02CFE494807F011FD494858
:1015D00007F00EFD484807F00BFD484807F008FDEE
:1015E000474807F005FD474807F002FD00260027A1
:1015F00000240125CDE90667CDE90354CDE9014476
:10160000414B424900944FF48062414806F054FB3C
:10161000404B1860404B41490094CDE90667CDE945
:101620000354CDE901444FF480623D4806F044FB89
:101630003C4B18603C4B3D490094CDE90667CDE931
:101640000354CDE901444FF48062394806F034FB7D
:10165000384B1860384B39490094CDE90667CDE91D
:101660000354CDE901444FF48062354806F024FB71
:10167000344B1860344B35490094CDE90667CDE909
:101680000354CDE901444FF48062314806F014FB65
:10169000304B1860304B31490094CDE90667CDE9F5
:1016A0000354CDE901444FF480622D4806F004FB59
:1016B0002C4B18602C4B2D490094CDE90667CDE9E1
:1016C0000354CDE901444FF48062294806F0F4FA4E
:1016D000284B186009B0F0BD13A30000EC070020F0
:1016E00019A300001C9E00003AA3000069A300009B
:1016F00038080020680800205008002080080020DA
:1017000098080020B0080020F113000020110020EC
:1017100068020020C80800201115000040150020B4
:10172000E8020020CC080020C11100006019002050
:1017300068030020D0080020F1100000801D002068
:10174000E8030020D4080020F10C0000A0210020B4
:1017500068040020D8080020B10D0000C02500203A
:10176000E8040020DC08002039120000E0290020F5
:1017700068050020E00800202DE9F04F91B08B466D
:10178000029092461C4600259AF8000008B92846A7
:101790005EE325280AF1010707D0029B59469847C6
:1017A0000028C0F25583013510E2182200210AA852
:1017B00007F052FD9AF80130252B78D0002294468C
:1017C000164696461046394617F8013B2B2B00F07B
:1017D0009D8000F29480202B00F09B80232B00F052
:1017E0009A8028B19DF8300040F004008DF8300058
:1017F000BEF1000F05D09DF8300040F008008DF8D4
:1018000030002EB19DF8300040F010008DF830000F
:10181000BCF1000F05D09DF8300040F020008DF89D
:1018200030002AB19DF8302042F040028DF830207F
:101830009DF8302002F04400442803D16FF3861253
:101840008DF830209DF830202A2B42F080028DF850
:1018500030207BD19DF8312042F001024B1C8DF8E5
:1018600031201A782E2A9DF831200CBF0121002149
:1018700061F341028DF8312074D15A782A2A6AD056
:10188000013300210A26184610F8012BA2F1300777
:10189000092F40F28E809DF830200E91C2F3400057
:1018A00040EAD17161F341028DF830205AE00AF12B
:1018B00002078DF833309DF83130D90740F1498166
:1018C00054F8049BB9F1000F07DA9DF8302042F07C
:1018D00004028DF83020C9F100095A0740F1428115
:1018E00054F8048BB8F1000F80F241819DF831303B
:1018F0006FF341038DF831304FF0FF3837E12D2B76
:101900000CD0302B7FF46DAF01225CE74FF0010E5D
:1019100059E7012657E74FF0010C54E7012052E741
:101920000CFB0202303A33461E4616F8010BA0F1BA
:101930003007092FF4D9994293D09DF830100D92B9
:10194000D20F62F341018DF830108AE70B46002276
:101950004FF00A0CE8E79DF8312042F004028DF8C0
:10196000312002331F4617F8012B6C2A41D025D8AD
:10197000682A2BD06A2A46D04C2A4CD01F4617F82A
:10198000012B9DF831308DF83320782A00F2D98070
:10199000572A4DD8412A03D0453A022A00F2D18075
:1019A0009DF83230042262F302038DF832300123B5
:1019B0009EE006FB01213039034664E7742A26D0F5
:1019C0007A2ADBD19DF8313006220DE05A78682A58
:1019D0009DF8312006D1012161F3C6028DF8312036
:1019E0009F1CCCE71346022262F3C6038DF8313008
:1019F000C5E75A786C2A9DF8312001D10421EBE724
:101A000013460322F0E79DF831300522ECE79DF8FC
:101A100031300722E8E7BDF8303023F4F04323F0FB
:101A2000020343F4804343F00203ADF83030A6E7ED
:101A3000A2F15801202900F2848001A050F821F081
:101A4000051B0000431B0000431B0000431B00005C
:101A5000431B0000431B0000431B0000431B00000E
:101A6000431B0000A1190000431B0000051B0000E0
:101A7000C51A0000A1190000A1190000A119000059
:101A8000431B0000C51A0000431B0000431B00005D
:101A9000431B0000431B00000D1B0000051B000042
:101AA000291B0000431B0000431B0000291B0000F2
:101AB000431B0000051B0000431B0000431B0000EC
:101AC000051B00009DF83210012003F0780360F33D
:101AD0000201402B8DF8321002BF9DF8301041F00A
:101AE00001018DF83010632A31D1003B18BF01236A
:101AF0009DF83020C2F340010B4363F341028DF89F
:101B00003020D8E69DF832100220DEE79DF8322022
:101B100003F07803A3F14000032161F30202434282
:101B20008DF832204341E3E79DF83220032113F082
:101B3000780F61F302028DF8322014BF01230023D5
:101B4000D6E79DF8303043F001038DF830300023A4
:101B5000CEE79DF93020002AB4BFDDF834904FF075
:101B6000FF39BAE69B077FF5C7AEDDF838809DF8F0
:101B700031200023CDE90D339DF8323003F0070307
:101B8000012BC2F3C30236D1D31E042B20D8DFE8C9
:101B900003F00307071F1F0054F8040BC11704E0EC
:101BA000073424F00704F4E80201CDE90A019DF8A6
:101BB000303013F0030654D002983B465246594643
:101BC00007F06CFA0028C0F243810544BA46DBE511
:101BD00054F8040B012A4FEAE071CDE90A0105D15E
:101BE0009DF828300A9300230B93E0E7022ADED108
:101BF000BDF92800D2E7022B23D1D31E042B13D822
:101C0000DFE803F0030A0A12120020680A9000219C
:101C1000231D0B911C46CAE7073424F00703F3E8A1
:101C20000201CDE90A01F5E754F8043B0A93012AC1
:101C30004FF000030B93D3D0022AB8D1BDF828305F
:101C4000D0E7042B07D1073424F00704F4E802019D
:101C5000CDE90A01ABE7032B04BF54F8043B0A9318
:101C6000A5E79DF833007828B0D8622822D8252827
:101C70003FF493AD5828A9D10DF126030093DDE977
:101C80000A0104AB0CAA07F0BEF98246B8F1000FB6
:101C90000DF126000CDB9DF83020A0EB0A036FF35A
:101CA000861298458DF8302002D9A8EB03030D93D6
:101CB00080463DE06338152888D801A151F820F00E
:101CC000411D0000A51D0000CD1B0000CD1B000024
:101CD000CD1B0000CD1B0000A51D0000CD1B00008A
:101CE000CD1B0000CD1B0000CD1B0000031E00001B
:101CF000D11D0000D51D0000CD1B0000CD1B000034
:101D0000191D0000CD1B0000D11D0000CD1B0000DF
:101D1000CD1B0000D11D0000B8F1000FDDF828A098
:101D20000ADB4146504607F077FA0AEB0008002626
:101D3000BAF1000F0CD149E7504607F066FAF4E714
:101D40000A9B8DF8103000260DF111080DF1100AD4
:101D5000A8EB0A0306B101339DF83220D0066BD5FB
:101D6000023352060D9948BF0E9A0B4448BF9B1888
:101D7000B9F1000F79DD9DF83020A9EB0309C2F31A
:101D800080030393530770D4500664D546B1029B79
:101D900059463046984700285ADB039B01351E46BA
:101DA000302359E01E0711D413F0100618BF202667
:101DB000DDE90A23002A73F10001BFF65DAF52424C
:101DC00063EB4303CDE90A232D2655E72B26EFE7E6
:101DD000002651E70A9848B30DF1260300930CAA98
:101DE00004AB002107F00FF9BDF8323003F0EF0328
:101DF00043F4F04343F010038246ADF8323000263E
:101E000044E70A9B072A3FF6E1AEDFE802F00D0443
:101E1000060D08080D0D1D70D8E61D80D6E6284673
:101E2000E917C3E90001D1E61D60CFE6DFF8C48001
:101E30000646A8F1050A8BE7110748BF013390E772
:101E4000184603935946029B98470028039B04DADF
:101E500011B0BDE8F08F20234D444A46002AA5EB7F
:101E6000090109F1FF39EBDC0D4636B1029B5946F9
:101E7000304698470028EBDB01359DF83230D90613
:101E800001D41A0706D5029B5946302098470028EE
:101E9000DEDB01359DF83230DB0607D59DF83300D7
:101EA000029B594698470028D2DB01350D9E2E44EF
:101EB000731B002B16DC029843465246594607F026
:101EC000EDF80028C4DB0544A944A9EB0503002B69
:101ED0007FF77CAE029B5946202098470028B7DB4D
:101EE0000135F2E7029B5946302098470028AFDBC6
:101EF0000135DDE7A1A30000436803F00303022BD3
:101F000070B504460E46816010D0032B04D0012B1F
:101F10000FD10025284601E00568002000236360FA
:101F200010B1314604F0F2FA284670BD0068002571
:101F3000F4E7064A06490748452307F034F9034801
:101F4000452107F059F80025E7E700BFA2A30000EC
:101F500087AB0000E09E0000014806F0ADBE00BF68
:101F6000189C000008B5D0B14368042B11D10022A1
:101F70000368BFF35B8F53E8001F012903D143E8D7
:101F800000200028F7D1BFF35B8F074808BF104639
:101F900008BD3BB1006804F07BF90020F8E76FF45E
:101FA000E040F5E70148F3E7E98FFFFFEA8FFFFF25
:101FB00010B5044618B90D4B0D485B689847616829
:101FC00008290DD031F004030AD011F0020108D025
:101FD0000848214603F0F8FF0023236000236360D4
:101FE00010BD2068142207F037F9F7E798010020A8
:101FF000C5A30000E408002010B5044618B9164B2C
:1020000016485B6898476368042B23D0082B21D0BF
:10201000CBB92368BBB912484FF0FF324FF0FF3302
:10202000214603F065FF08B923681BB90A4B0D4828
:102030005B68984720681422002107F00DF9636857
:1020400043F002036360206807F0F7FB636843F026
:102050000103636010BD00BF98010020C5A300000C
:10206000E4080020EBA3000008B508B34368042B84
:1020700010D101220368BFF35B8F53E8001F0029D2
:1020800003D143E800200028F7D1BFF35B8F0BD1C9
:10209000002008BD53B100684FF0FF324FF0FF330E
:1020A00003F0F6FF0028F3D00348F2E70348F0E717
:1020B0006FF4E040EDE700BFE98FFFFFEA8FFFFF1D
:1020C00008B5064906484023142207F09AFBBDE8EC
:1020D00008400449044806F051BE00BF040900202E
:1020E000E4080020309C0000209C00002DE9F04F07
:1020F000B0F81C9085B019F0080F0446039222D066
:1021000001290CBF49F0100949F02009A0F81C90E2
:102110001434204605F0BCFE68B99F4A9F49A04888
:10212000AC2307F040F89F48214607F03CF89A4856
:10213000AC2106F061FF039B83F31188BFF36F8F1F
:1021400005B0BDE8F08F984FDFF8548209F0070919
:10215000022906D1204606F0D0FF0028D8D0012859
:1021600068D1D4F818B0A38BBBF1000F0ADA0026AF
:10217000256823F00703C4E9006643F00103A38345
:10218000019627E003F00702511F012934D80021EE
:1021900023F00703062A25689BB2C4E900110CD17D
:1021A0008D422A4638BF0A462AB1E18B12680131B6
:1021B000E183002AF8D143F00203A383204606F00E
:1021C0009CFF06460028DBD0A38B43F02003A383AB
:1021D00000230193A38B03F007024A45029203D028
:1021E000A268002A40F0F0801DB9019A002A00F090
:1021F00036814FF00009E9E0042A0ED123F00703ED
:102200009AB2A283204606F078FF054618B142F044
:102210002002A28300250195DCE74046634940F295
:102220001B133A4606F0BFFF40F21B11384606F07A
:10223000E3FEEFE7032835D1B9F1000F0BD05C497D
:1022400040464FF4AB733A4606F0ADFF4FF4AB7126
:10225000384606F0D1FE23685BB95649404640F245
:1022600057133A4606F09FFF40F25711384606F0E2
:10227000C3FE23691B6801935BB94F4940464FF485
:10228000AD733A4606F08FFF4FF4AD71384606F055
:10229000B3FEA38B23F0070343F00603A3830025BB
:1022A000AB4697E7042832D1B9F1020F0BD043496E
:1022B000404640F25D133A4606F075FF40F25D116C
:1022C000384606F099FEE38B5BB13D4940464FF43A
:1022D000AF733A4606F067FF4FF4AF71384606F029
:1022E0008BFE23695B6801935BB93349404640F23A
:1022F00061133A4606F057FF40F26111384606F086
:102300007BFEA38B23F0070343F00403C6E70528F5
:1023100032D1B9F1010F0BD02A4940464FF4B273C4
:102320003A4606F040FF4FF4B271384606F064FEBC
:1023300023685BB91F49404640F265133A4606F0F0
:1023400032FF40F26511384606F056FE23699B685D
:1023500001935BB9184940464FF4B4733A4606F00E
:1023600022FF4FF4B471384606F046FEA38B23F0EB
:10237000070343F0050391E70C4940F26B133A461B
:10238000404606F010FF002540F26B11384606F07B
:1023900033FE019584E700BFBBA40000E1A4000068
:1023A000E09E0000F8A4000018A4000087AB000025
:1023B0003AA4000046A4000069A4000080A4000024
:1023C00096A40000A5A400004FF0010943F0080303
:1023D00004F1140AA383504605F05AFD68B93A4A3D
:1023E0003A49AC23404606F0DEFE3948514606F035
:1023F000DAFE3548AC2106F0FFFD039B83F311881C
:10240000BFF36F8FB9F1000F38D1002D4BD1019B75
:1024100013B13049204698474FF02003EFF3118B5A
:1024200083F31288BFF36F8F5046CDF80CB005F0E0
:1024300021FD68B9244A28498123404606F0B3FEAD
:102440002648514606F0AFFE1F48812106F0D4FD14
:10245000504605F02DFDA38B23F00803A383A38B27
:10246000DA0628D523F01003A3830121B4F81C90C9
:1024700009F0070900297FF46BAE49E6A16800293D
:10248000C3D00B68029A002B38BF002399464B68D3
:1024900020461E465B46B047B9F1000FB5D0D9F8CB
:1024A00000304946EEE72946029A2D685B462046F1
:1024B00006F03FFEA9E713F020011EBF23F0200322
:1024C000A3830221D2E700BFBBA40000E1A4000067
:1024D000F8A40000E12400000DA5000022A50000E2
:1024E000F8B504460D4600F114064FF02003EFF353
:1024F000118783F31288BFF36F8F304605F0BAFC63
:1025000068B90C4A0C490D48812306F04CFE0C4872
:10251000314606F048FE0748812106F06DFD304641
:1025200005F0C6FCA5613A4620460121BDE8F84009
:10253000FFF7DCBDBBA400000DA50000E09E00007D
:1025400022A500002DE9F04704460F4606F007FEDD
:10255000051E5EDB04F114094FF02003EFF3118A2E
:1025600083F31288BFF36F8F484605F083FC68B988
:10257000384A39493948812306F015FE384849461A
:1025800006F011FE3348812106F036FD484605F07D
:102590008FFCE38BA28B4FF6FF718B4202F0070694
:1025A00050D0022E24D10133E38335464FF0010889
:1025B000484605F06DFC68B9264A2A492748AC23ED
:1025C00006F0F1FD2848494606F0EDFD2148AC2112
:1025D00006F012FD8AF31188BFF36F8FB8F1000F78
:1025E00017D0002332463946204606F0A2FD10E0FF
:1025F000930701D0062E0FD100233B606368F3B927
:10260000C4E900773546FEB9524602212046FFF75D
:102610006DFD2846BDE8F087052E18D0012E0BD0A1
:1026200012490E48124A40F2C91306F0BCFD104888
:1026300040F2C91106F0E0FC6FF0040504E01F60F1
:102640006760DFE76FF00A054FF00008B0E76FF052
:102650008505F9E7BBA400000DA50000E09E000081
:1026600022A50000E1A40000F8A40000A5A4000039
:1026700018A400002DE9F84305464FF02003EFF3BE
:10268000118683F31288BFF36F8F234805F0F2FBA6
:1026900068B9224A22492348812306F084FD1E4955
:1026A000214806F080FD1D48812106F0A5FC1A484E
:1026B00005F0FEFB1D4B1C68002C38BF00249CB1AC
:1026C0001B4FDFF878804FF00C09D4E90132002D60
:1026D00008BF13462BB198F8142009FB02F2B85C2E
:1026E00098472468002CF0D10B4805F0D1FB68B95D
:1026F0000A4A10490B48AC2306F055FD06490E481E
:1027000006F051FD0548AC2106F076FC86F31188F1
:10271000BFF36F8FBDE8F883040E0020BBA4000058
:102720000DA50000E09E000022A50000080E00207C
:10273000140E0020E1A40000F8A40000EC0E00201C
:1027400000F01F0301229A400A4BBFF35B8F400940
:1027500003EB800050E8003F43EA020140E8001C20
:10276000BCF1000FF6D1BFF35B8F1A4214BF0120FA
:1027700000207047200E002030B51D4B1D7DBFF39B
:102780005B8F05F01F0301229A401A4B690985B03F
:10279000D04303EB810353E8001F01EA000443E840
:1027A000004CBCF1000FF6D1BFF35B8F114217D084
:1027B000114C0C2202FB054207CA01AB83E807005B
:1027C0000E4A7AB193E8070006F062FD0020FFF799
:1027D00051FF0C236B430022E118E250C1E90122B2
:1027E00005B030BD82F31188BFF36F8FEEE700BFF5
:1027F000EC0E0020100E0020140E0020919200001C
:102800002DE9F041374BDFF8F4801C7D88B0074696
:102810002046FFF795FF60B96E463A46214630469E
:1028200006F0CEFC96E807000C2505FB048585E83C
:1028300007000C23634308EB030218F80300650943
:1028400004F01F06C8B37B1C0FD0D2F808E026485E
:10285000264A4FF4004C00210023ECFB0E01FEF74A
:10286000CDF80121381A05F0E5FC03F0B3FF012093
:10287000FFF700FFBFF35B8F1D4B0122B24003EB5C
:10288000850353E8001F114343E800100028F8D1E6
:10289000BFF35B8F0C2303FB048494E8070005ABB4
:1028A00083E80700134A1AB193E8070006F0DDFC3D
:1028B000FFF762FF04F0D2FC01200F4ABFF35B8FE9
:1028C0000123B340DB4302EB850555E8002F1A4096
:1028D00045E800210029F8D1BFF35B8F08B0BDE8BF
:1028E000F08100BFEC0E00203F420F0040420F007D
:1028F000100E00206B920000200E0020140E00200D
:102900000B6801330B60014B1B681847DC0000208B
:10291000014B1860704700BFDC00002007B50B4674
:10292000002102460191034801A9FEF725FF03B0EB
:102930005DF804FB0129000008B54FF02002EFF319
:10294000118382F31288BFF36F8F00F0BFFC03483E
:1029500006F029FC00F00AF8FCE700BF3AA50000E9
:10296000014910220A60704710ED00E072B6404045
:1029700080F31188BFF36F8FBFF34F8F30BF62B604
:10298000BFF36F8F704700BF72B6494081F3118863
:1029900020BF80F3118862B6704700BF01B572B6E0
:1029A0000B4A906900281EBF0021916106F022FFAA
:1029B00062B6EFF30580A0F110004FEAC0000549B0
:1029C000014409C99847BDE8014003490847000090
:1029D000EC0E00205C9A0000012C000030BFFFF7D5
:1029E000FDBF00BF12498A684FF030001044EFF37A
:1029F000098C80E8F01F202080F31288BFF36F8FCE
:102A00000C4F4FF00066CA698A603E60906F0023E9
:102A1000936780F3118804B5104600F0E7FABDE82B
:102A2000044002F1300090E8F01F8CF309887047F1
:102A3000EC0E002004ED00E01EF0040F0CBFEFF3DD
:102A40000880EFF30980816911F8021C0229FFD088
:102A500001B506F0C6FB01BD43B2002B08DB012225
:102A600000F01F0002FA00F05B09024A42F823005E
:102A7000704700BF00E100E0054B420900F01F0075
:102A800053F82220012303FA00F01040704700BFE2
:102A900000E100E070B54C1C072C05460E460FD92E
:102AA000114A12491248592306F07DFB114831465C
:102AB00007232A4606F077FB0B48592106F09CFABB
:102AC0006BB2002BACBF03F160430B4B4FEA4414D5
:102AD000B8BF05F00F05E4B2AABF03F561435C552A
:102AE00083F8004370BD00BF63A5000099A50000F6
:102AF000E09E0000B4A5000014ED00E00B4A08B50C
:102B00000B4B22F07F029A60BFF34F8FBFF36F8FA2
:102B1000D3F8882022F47002C3F8882003F030F93B
:102B200006F056F800F0F6F903F034F90000000062
:102B300000ED00E0094A0A4993680968D967094924
:102B400098674B6843F080534B60002383F31188F0
:102B5000BFF36F8F9368D86F704700BFEC0E0020F3
:102B6000909D000000ED00E042F8203C009B42F800
:102B70001C3C0A49019B42F8183C029B42F8143C59
:102B800021F001014FF0807342F8043C42F8081C28
:102B90000023203A02658367704700BFCB91000095
:102BA0000B4A0346906890B113F1160F806E05D062
:102BB000A0F120029A4206D8834204D281422CBF5F
:102BC0000021012100E00021002908BF00207047FA
:102BD000EC0E002008B5094B98600D46144600F035
:102BE00005FA204685F30988002163B681F3118830
:102BF000BFF36F8F0022002306F0E7FAEC0E0020EF
:102C0000044B9968D869884203D003494FF0805239
:102C10000A607047EC0E002004ED00E0EFF308803E
:102C2000EFF3098101B5724600F0AEF801BD00BFB7
:102C3000002080F31488BFF36F8F06F07DFE002024
:102C40000D490860BFF34F8F0C4880F3088800F0EF
:102C50007DF9202080F3118809484FF40261401863
:102C600080F30988EFF314800221084380F314886D
:102C7000BFF36F8FFFF742FF94ED00E000320020BA
:102C800080330020234B70B515469A6A9A6A9A6A77
:102C9000044690071AD5586B9A6A120616D519B1D0
:102CA0009A6A22F080029A629A6A9A6A9A6AD606A8
:102CB0000FD49B6A99070CD40024164A936A43F0F8
:102CC000FF03936200232B70204670BD6FF0150048
:102CD000EAE7104E73681A05EED52146FFF760FF4C
:102CE000044618B180F309880224E6E7B36ADB06DC
:102CF000E2D5094A09490A4840F2491306F053FA55
:102D0000084806F050FA044840F2491106F074F9F8
:102D1000D3E700BF00ED00E0F4A500002EA6000000
:102D2000E09E000078A600000D4B9A6A9A6A9A6AA3
:102D3000920508D59A6B9A6A120404D518B19A6A5A
:102D400022F400429A62064B9A6A9A6AD20558BFE8
:102D50009A6A9A6A002042F47F429A620870704729
:102D600000ED00E0074B9A6A9A6A9A6A9A6A9A6A30
:102D70009A6A9A6A6FEA02426FEA12429A620020E5
:102D8000704700BF00ED00E070B5544B5C688AB03E
:102D90000D46C4F30804002686F31188BFF36F8F35
:102DA00002F07F43B3F17F4F08D102F00C03082BF0
:102DB00004D012075CBF054601267DB9484A49493F
:102DC000494840F2F23306F0EEF9484806F0EBF9D4
:102DD000434840F2F23106F00FF9002500238DF848
:102DE0000730E31E032B72D8DFE803F002696D4958
:102DF0003A4BDC6A14F0020469D1DA6A002A18DB63
:102E0000DB6A5B004ED5AB6933F8022C4DF60273DA
:102E10009A420DD003F1604303F626631B780BB38F
:102E20000DF1070201212846FFF72CFF044600E0C0
:102E30002C689DF807309BB92022294602A806F08D
:102E400000FA099B002E44D0C3F3080222B96FEAAE
:102E500053236FEA4323099302A9204606F0BFF9E2
:102E60000AB070BD224B1B782BB10DF10701012078
:102E7000FFF75AFFDAE71F4B1B889BB213B1FFF72E
:102E800071FFD3E71C49164A174840F2C32306F0E6
:102E90008AF91A4806F087F940F2C321104806F073
:102EA000ABF8C6E714490E4A0F4840F2C72306F0B4
:102EB0007AF9134806F077F940F2C721EEE70DF1F1
:102EC00007020021AFE70DF107010020D0E7002441
:102ED000AFE723F4FF7323F00103BCE700ED00E04C
:102EE000F4A500009BA60000E09E0000AEA6000036
:102EF00029ED00E02AED00E087AB0000ECA6000021
:102F000010A70000024A536943F010035361704751
:102F100000ED00E0044800232021C2180133302BCB
:102F200082F80013F9D1704700E100E0064A116809
:102F30000023C1F3072118468B4200D170479360EC
:102F400010610133F8E700BF90ED00E008B572B6FC
:102F5000002383F31388FFF7E9FF144B4FF0FF3290
:102F6000C3F88020C3F88420C3F88820C3F88C20DD
:102F7000C3F89020C3F89420C3F89820C3F89C208D
:102F8000C3F88021C3F88421C3F88821C3F88C21B9
:102F9000C3F89021C3F89421C3F89821C3F89C2169
:102FA00062B6BFF34F8FBFF36F8F08BD00E100E043
:102FB000064B9B68834207D1EFF3058323B1044A94
:102FC000536843F08053536004F00CBCEC0E0020B7
:102FD00000ED00E0024B034A0348012100F068B80D
:102FE0000000042000000020449C0000826E054B7D
:102FF000203A1A60044A2021C3E90112184601212F
:1030000000F07EB8240E002000000B15F0B51E4F16
:1030100000268E4201DB1046F0BD446884B353B1F4
:1030200004F1FF3C14EA0C0F18D11F2C16D90568C7
:103030001CEA050F12D1202C0568D0F808C0D2B2C6
:103040000FD9B4F1004F0ED8013CB4FA84F4C4F1A6
:103050001F046400072A4CEA040406D96FF0150225
:10306000D9E70824F6E73E24F4E725F01F051543C9
:1030700045F0100544F00104BA60FD6001323C6186
:1030800001360C30C5E700BF90ED00E0034B052290
:103090005A60BFF34F8FBFF36F8F704790ED00E022
:1030A000BFF35F8F014B00225A60704790ED00E044
:1030B00038B50E4D01232A780C46FFF7A7FF28707C
:1030C000163011D140F21113094A0A490A4806F094
:1030D0006AF82146094806F066F8BDE83840044819
:1030E00040F2111105F088BF38BD00BF620F00200B
:1030F00040A7000087AB0000E09E000077A700001B
:1031000010B5124A002312780C46FFF77FFF10F12A
:10311000160F08D00E4B0022072800DD10BD986066
:103120001A610130F8E70B4A0B490C484FF49873C9
:1031300006F039F821460A4806F035F8BDE8104097
:1031400004484FF4987105F057BF00BF620F00208C
:1031500090ED00E040A7000087AB0000E09E00007B
:10316000A3A70000254910B50C68082C13D94FF40B
:10317000A473234A2349244806F015F8234808225B
:10318000214606F010F81E484FF4A47105F034FFF4
:103190004FF0FF3010BDFFF783FF48681C49002245
:1031A000944200F10C0019D11A4B1C70FFF76EFF0E
:1031B0000B68C3F30723082B0ED01749104A124897
:1031C0004FF4D47305F0EFFF144805F0ECFF0C4802
:1031D0004FF4D47105F010FF0020DBE78A6050F84F
:1031E0000C3C23F01F03134343F01003CB6050F853
:1031F000043C43F001030B610132D1E7509C000015
:1032000040A7000087AB0000E09E0000D0A70000B0
:1032100090ED00E0620F002004A8000054A8000018
:103220000FB407B504AB022153F8042B04480193F3
:10323000FEF7A2FA03B05DF804EB04B0704700BFDC
:1032400007920000014B1860704700BFE0000020AB
:103250000239012902D8034B1B6818474FF0FF3091
:10326000704700BFE00000204FF02003EFF3118112
:1032700083F31288BFF36F8F0F4A0123C2F84035E2
:103280004FF08042C2F878350C4A1268082A08D1FB
:103290000B4A1268052A04D80A48825C0AB10A4A15
:1032A00013604FF080430122C3F8802581F3118819
:1032B000BFF36F8F0020704700E001403001001025
:1032C0003401001084A80000380600404FF080430D
:1032D000C0B2C3F81C05BFF34F8F0549054BCA6840
:1032E00002F4E0621343CB60BFF34F8F00BFFDE7F2
:1032F00000ED00E00400FA0520B1034B800143F02B
:1033000001031847704700BF109C0000054A0123C5
:10331000C2F8003508B1D36070471360024A1360E9
:10332000704700BF0070004004700040087970B51D
:1033300000F01F04072C1FD80B78092B1CD8DFE8DE
:1033400003F006060606061B051E1B2005234A7809
:10335000032A18D0042A0FD100254A8844F20A060D
:10336000B24244D011D844F20306B2423BD044F2F8
:103370000506B24239D0D2B36FF0150032E0062311
:10338000E5E70723E3E70125E7E744F21406B24245
:103390002FD044F22806B2422DD044F20F06B2429A
:1033A000EAD10322C0F340101B0243EA005343EA70
:1033B000053343EA0243220102F1804202F5E04272
:1033C0000020C2F81835230103F1804303F5E043E0
:1033D0008A79C3F81425C3F81005084B1C444B79AF
:1033E00084F8A83070BD0022DCE70122DAE702226F
:1033F000D8E70422D6E70522D4E700BF000000206A
:10340000F7B50546406810B96FF015009CE030F044
:10341000FF02F9D1574C584F114620FA02F313F02E
:10342000010333D0BB1893F8A8C0BCF1000FEBD058
:1034300004EB021E6E7CDEF81835003E18BF012634
:1034400023F0807343EA0663CEF8183502F1510386
:103450001B01013144F803C0C9B20132082ADCD192
:103460002B7C083B062BCFD801A252F823F000BFDB
:10347000553500000934000097340000093400007D
:103480004D350000093400005135000002F15106AD
:103490003601A351E1E70122364B0129C3F8F0259B
:1034A0006A7C59D9002AAFD1C3F8F4252A684B00A9
:1034B00012B1928902FB0333EA689A4256D32D4B2C
:1034C000AA68C3F82C262F46C3F830160FCF2A4C13
:1034D00004F17C060FC63B6833602B680026266724
:1034E000002B3CD00FCB04F1900585E80F00E56779
:1034F000A4F8A06098B3BFF35B8F54E8003F44E8A2
:103500000062002AF9D1BFF35B8F1C48D4F89060A9
:103510001B4A4FF4004500210023E5FB0601FDF79F
:103520006DFA0022CDE90001002304F1080005F046
:10353000A1F894F87830BBB912484FF0FF324FF041
:10354000FF3304F0B1FA206F03B0F0BD0222A3E70D
:103550000322A1E700229FE7082AA5D954E794F89F
:103560008E00FFF7D3FEE4E70020EDE76FF00B00DD
:10357000EAE700BF00700040000000203F420F005B
:1035800040420F005800002070B50C4616460D4D05
:103590004FF0FF324FF0FF3305F1400004F084FAA2
:1035A0000123204685F878306E67FFF729FF95F8EC
:1035B0007830044603B110B1034804F031FA2046D4
:1035C00070BD00BF00000020400000200D4B10B572
:1035D00000241C601B680C4B1C601B680B4B1222E8
:1035E000C3F804230720FFF737FA224601210720FA
:1035F000FFF750FA0648836C13B9403004F010FA14
:10360000002010BD047100401071004000700040A7
:1036100000000020344B1A6810B5002A55D0002253
:103620001A601B68314C324B01211960C3F8F82431
:10363000E36FDBB3D4F8943043B1B4F8A02004F1C5
:103640007C019847012814D0022829D0B4F8A03072
:10365000B4F89C209A4223D90133A4F8A030254B1A
:10366000D3F82C26D3F8341689B202EB4102C3F802
:103670002C26D4F890302BB994F88E00BDE8104079
:10368000FFF744BEBFF35B8F54E8003F5A1E44E887
:1036900000210029F8D1BFF35B8F012BECDC10BDBA
:1036A000D4F8903013B1144806F021F994F878302A
:1036B0004BB1606F10B1002102F028FF0F48BDE848
:1036C000104004F0ADB90E48F9E70E4B1968002917
:1036D000E5D01A60064A1B680123136042F8083CD3
:1036E00042F8043CDBE700BF04710040000000200A
:1036F00008700040007000400800002040000020DA
:10370000580000201071004038B50C460C4D4FF0A9
:10371000FF324FF0FF3305F1400004F0C5F90023FC
:10372000204685F878306B67FFF76AFE95F87830A9
:10373000044603B110B1034804F072F9204638BDC5
:1037400000000020400000202DE9F041104C071B34
:10375000C7F347174FF00C0808FB07F8064608F1B7
:1037600048000D462044402105F0B4FD011E09DB50
:10377000084B4444C4E91035074B53F83730BDE8D3
:10378000F041184730462B46BDE8F041184700BFCE
:10379000400E002037930000989C000038B5CCB252
:1037A000012C054609D9094909480A4A792305F037
:1037B000FAFC0848792105F01FFC2B690C2104FB59
:1037C0000134A06C00F0070038BD00BFC7A800009E
:1037D000E09E00008AA80000F8B5CCB2012C076971
:1037E000054616460BD918491848194A40F24D1398
:1037F00005F0D9FC164840F24D1105F0FDFB4FF0E5
:103800002003EFF3118283F31288BFF36F8F0C2331
:1038100003FB0471896C11F0C00101D08E4210D1FC
:1038200003FB047301219964002082F31188BFF324
:103830006F8F28B9696801EBC4046368984700205A
:10384000F8BD4FF0FF30F0E7C7A80000E09E000091
:103850008AA8000070B50D460649411A0446491170
:1038600005484022FFF7B8FF2B4601462046BDE839
:1038700070401847400E0020B4990000002270B537
:10388000012104461046FFF705F90020FFF7E4F890
:103890000F4801F0C3F80F4B984215D101F0E2F840
:1038A00026690D49304605F069FC00280BDB01252F
:1038B000B5642469084904F1200005F05FFC002884
:1038C00001DB6565002070BD6FF00400FBE700BF01
:1038D000113900000000AD0BA89C000001460C232C
:1038E00009484B4370B5C418D4E910560022483338
:1038F0002264184405F00CFD2DB132462B460348D6
:10390000BDE87040184770BD400E0020B49900001B
:10391000012808B506D0032808D0A8B9104B9B6C25
:103920005B071BD1BDE80840FFF7D8BF0D490E4A21
:103930000E4840F25E2305F036FC40F25E21BDE801
:103940000840094805F058BB0649074A074840F2B5
:10395000622305F028FC40F26221F0E708BD00BFB9
:10396000400E002087AB00008AA80000E09E000007
:1039700008B54FF02003EFF3118183F31288BFF3F2
:103980006F8F124A136843F0020013F001031060B6
:103990000CD04FF08042D2F80C34D2F80C2413F043
:1039A000010303D00A4805F0B3FC012381F3118819
:1039B000BFF36F8F23B1BDE808400020FFF78EBF33
:1039C000BDE80840012001F06DB800BF980E00204E
:1039D000880E0020094BBFF35B8F53E8002F22F0C5
:1039E000020143E800100028F7D1BFF35B8FD30733
:1039F00002D4012001F0AAB8704700BF980E002041
:103A00007FB500220123CDE9022304ABCDE90433C5
:103A1000094ACDF800D06B46CDF804D005F09DFCE6
:103A2000002805DB4FF480420023684604F03CF890
:103A300007B05DF804FB00BF559300002DE9F84383
:103A40004949BFF35B8F0546012251E8003F41E839
:103A500000200028F9D1BFF35B8FA3B94349444844
:103A60004B60CB608A60FEF76DFD00280BDA4149A0
:103A70004148424A4FF4087305F095FB3F484FF424
:103A8000087105F0B9FAADB36B1E012B56D8012DA4
:103A900007D14FF08043D3F81C3403F00303012B0C
:103AA00028D005F00FFF044618B9354B1B78002BC2
:103AB00052D14FF02003EFF3118683F31288BFF346
:103AC0006F8F01242F4FDFF8C480DFF8C4904FF0D0
:103AD0008042D2F81834D2F81824D2030CD503F05F
:103AE0000303012B01D0012D06D10CB386F31188FD
:103AF000BFF36F8FBDE8F883ACB13046FEF744FFEB
:103B00004FF08042D2F81835002BE0D139680029F7
:103B1000DDD03B603B680123C2F81835C8F880311E
:103B2000C9F80030D3E70021212003F00DFEE7E7BC
:103B30004FF080430222C3F80423DBE712490E480A
:103B40000E4A40F2322305F02EFBBDE8F8430B4845
:103B500040F2322105F050BA4FF080430222C3F800
:103B600008230646AEE700BF9C0E0020300E002062
:103B7000600E0020EBA80000E09E00008AA8000074
:103B8000630F00200401004087AB000000E100E06B
:103B90000800004008B5084B0848186005F020FEF2
:103BA00038B10748FFF74EFB0548FEF7B1FE00208D
:103BB00008BD6FF01200FBE7A00E0020149A000071
:103BC000C53B00000A2838B5074D044604D12868D3
:103BD00083680D215B68984728688368E1B25B6859
:103BE0009847204638BD00BFA00E002070B505697B
:103BF00016460C4661B92249224A2348242305F07F
:103C0000D2FA224805F0CFFA1E48242105F0F4F933
:103C1000636863B91E491B4A1B48252305F0C3FA94
:103C20001C4805F0C0FA1748252105F0E5F96B6836
:103C30005BB100229C4213D123685AB9AA686B6019
:103C4000944200D1AB600023236076B9002070BDA0
:103C50000B46EFE71360AB689C4208BFAA60F2E72F
:103C600019681A460029F3D13EB16B682360A86831
:103C70006C600028EAD1AC60E9E76FF01500E6E778
:103C800027A90000FAA80000E09E000030A900006B
:103C90003FA9000051A9000043092DE9F04703D0D6
:103CA000012B36D0BDE8F0871B4F3B695C68002CC8
:103CB000F8D02568DFF86C80DFF86C90DFF86CA036
:103CC00000F01F000126002D06FA00F638BF00257F
:103CD000A3681E4214D0636863B94946452342462F
:103CE000504605F060FA0D4805F05DFA4521404662
:103CF00005F082F9D4E9013221463240384698472E
:103D0000002DCFD02B68002B38BF00232C461D463A
:103D1000DEE7034FC9E700BFCC99000051A90000BE
:103D2000E4990000FAA8000068A90000E09E0000E5
:103D30007FB54068057B01F01F04B2F5005F44EADF
:103D400045144FF0000504D1204601F097FA0020F9
:103D500054E0B2F5804FCDE9025551D1B3F5003FA3
:103D60000CBF042305238DF80830836823FA01F182
:103D700011F0010155D1B2F5A03F52D166094AD0E8
:103D80004FF6FF73012E08BF194604F01F05E940E6
:103D9000CA070BD42B492C482C4A40F2292305F0A2
:103DA00002FA2A4840F2292105F026F96EB1012EC7
:103DB00034D027492448254A40F22E2305F0F3F950
:103DC000224840F22E2105F017F94FF0A04305F5E7
:103DD000E07553F82530DB0723D40DF1070529469C
:103DE000204601F075F91B4B984219D1284601F085
:103DF000CFF9194B984213D06FF00B0004B070BD8F
:103E0000B3F5C02F05D0B3F5003F0CBF022301234B
:103E1000A9E70323A7E74FF0FF31B6E70F4BD6E73B
:103E200003950023194602AA204601F033F80A4BF5
:103E3000984204D10121204601F0B0F987E76FF0E4
:103E40000400DBE7A7A90000E09E000074A90000C1
:103E500087AB00000400AD0B0000AD0B0003005069
:103E600010B501F085F9044668B901F059F9084B1D
:103E700098420AD10748214601F024F9224605213B
:103E80000620FEF707FE002010BD6FF00400FBE7E0
:103E90000000AD0B993C00002DE9F04347683B7BE7
:103EA00001F01F0585B00E4645EA43151446CAB910
:103EB00002A9284601F00CF90446284601F000FA50
:103EC000484B984204D06FF0040005B0BDE8F08381
:103ED000844205D19DF8080001F054F9A042F2D1C6
:103EE0000020F2E74FF000090DF103013046CDE963
:103EF000029901F0EDF84B46804602AA4946284651
:103F000000F0C8FF374B984202D06FF01500DCE795
:103F1000804503D19DF8030001F034F9A3054ED587
:103F2000314B324A234093423AD00CD8062B14D05E
:103F300004D893B1022BE8D104230EE0B3F5801F1F
:103F4000E3D1012309E02A4A93422BD0B3F5A00F15
:103F50002AD0B3F5800FD8D102238DF8043084F431
:103F60008073C3F30023E0068DF8053054BFC4F31B
:103F70004013032321058DF8063017D57B680121F6
:103F800001FA06F6C3F80865002201A9284601F0E7
:103F900029F8144B984214BF6FF01500002094E7E5
:103FA0000723DAE70523D8E70323D6E7620541BFF5
:103FB0007B68012101FA06F6C3F80C65E4E7E30625
:103FC0004FF0000354BFC4F3401403241A4601A960
:103FD00028468DF8044000F05DFF024B98423FF404
:103FE0007FAF92E70000AD0B0600F0000600100066
:103FF0000200400002480021C2E900010020704791
:104000000024F40002464068126938B500F1080344
:10401000043200F10C04194613F9015B002DB4BF02
:1040200000254FF40045A34222F8025BF4D100239F
:104030001A4601F007FB034B984214BF6FF00F00C4
:10404000002038BD0000AD0B0268530910B50446CE
:104050002CD0012B4FF6FF7318BF002302F01F0274
:10406000D340DB070BD414491448154A40F22923E6
:1040700005F099F8124840F2292104F0BDFF2368A9
:1040800003F01F025B0922600DD0012B11D00D49F6
:104090000A480B4A40F22E2305F085F8084840F202
:1040A0002E2104F0A9FF4FF0A04010BD4FF0FF33C8
:1040B000D4E70548F9E700BFA7A90000E09E00008B
:1040C00074A9000087AB000000030050F0B54B79E5
:1040D000012B26D0032B21D110268B79032B1DD148
:1040E000CC790CB1012C19D10A7912B1022A15D15F
:1040F0000E220B684568B3F5164F2D6865D02DD894
:10410000B3F5165F64D016D8B3F5966F62D00AD8AF
:10411000B3F5967F61D0B3F5167F61D06FF085005F
:1041200052E00026D9E7B3F5166F5CD0B3F5965F81
:10413000F4D1374B3CE0B3F5E14F57D007D8B3F596
:10414000615F55D0B3F5964FE8D1324B30E047F67A
:104150001227BB42E2D14FF4000329E0B3F5613FDF
:1041600048D013D8B3F5963F47D009D84DF6C027AD
:10417000BB4244D0B3F5614FD0D14FF46B0317E08D
:10418000B3F5E13FCAD14FF0EB7311E0B3F5612F06
:1041900038D008D8204FBB4237D0B3F5E12FBDD17E
:1041A0004FF0E86304E01D4FBB42B7D14FF080539E
:1041B000C5F82435036903C9344322430433C5F8E1
:1041C0006C2583E803000020F0BD4FF41D03EFE7EA
:1041D000134BEDE74FF49E23EAE74FF4A033E7E7F4
:1041E0004FF41C33E4E74FF41D23E1E70D4BDFE709
:1041F0000D4BDDE74FF06C73DAE70C4BD8E74FF46B
:104200006503D5E74FF07063D2E74FF08063CFE7E7
:1042100000B0130000A04E0090D0030040420F00F9
:104220000050270000C0750000F03A0000903A01ED
:104230000268530910B504462CD0012B4FF6FF73CA
:1042400018BF002302F01F02D340DB070BD4144930
:104250001448154A40F2292304F0A5FF124840F201
:10426000292104F0C9FE236803F01F025B092260C4
:104270000DD0012B11D00D490A480B4A40F22E23D4
:1042800004F091FF084840F22E2104F0B5FE4FF0F3
:10429000A04010BD4FF0FF33D4E70548F9E700BF59
:1042A000A7A90000E09E000074A9000087AB0000F1
:1042B00000030050F8B5066905460F4605F002FBFD
:1042C00010B92C4B1B7883B94FF02003EFF3118406
:1042D00083F31288BFF36F8F284605F096F928BB49
:1042E00084F31188BFF36F8FEEE76424284605F04E
:1042F0008CF970B9012005F0DEF9013CF6D10021FE
:10430000212003F021FAF0E784F31188BFF36F8FC7
:10431000F5E74FF02003EFF3118483F31288BFF326
:104320006F8F284605F071F90028EDD006F8107F50
:1043300069680B680122C3F84465C3F84825002268
:10434000C3F82021D3F82001C3F85821D3F858210D
:104350004A68D20641BF0822C3F800254FF4800204
:10436000C3F8042301229A6084F31188BFF36F8F8E
:10437000F8BD00BF630F00202DE9F743D0F804809B
:104380000769D8F800400023C4F800353860456854
:10439000EB680646581C13D001A80193FFF748FFAD
:1043A000019A01239340C0F80835EB68019301A8F6
:1043B000FFF73EFF019B03F5E073032240F8232043
:1043C0002B69591C11D02A7F0193002A01A814BF20
:1043D0004FF003094FF00009FFF72AFF019B03F597
:1043E000E0734FEA890240F823206B695A1C13D00E
:1043F00001A80193FFF71CFF019A01239340C0F825
:1044000008356B69019301A8FFF712FF019B03F5C3
:10441000E073032240F82320AB69581C11D06A7F57
:104420000193002A01A814BF4FF003094FF00009BF
:10443000FFF7FEFE019B03F5E0734FEA890240F8A7
:104440002320D5E903122B68C3F80C15C3F81425F3
:10445000D5E90512C3F808153169C3F810250431F0
:104460003046FFF733FE0546002846D1D8F8043021
:10447000990719D507F1120001F020F8224B984254
:104480003FD1B87CC30003F1804303F5F83304F156
:104490000C0204F59071C3F81015C3F814251B4ADB
:1044A00001238340C2F804350823C4F8003598F886
:1044B00008305BB9C4F81031D4F8103107F111039A
:1044C000C4F834350123C4F838352360D8F80430F3
:1044D0009A075CBF4FF48072C4F80423DB0644BF24
:1044E0004FF48003C4F8043310370023C4F8447534
:1044F000C4F848350123A360E360284603B0BDE853
:10450000F0836FF00405F8E70000AD0B00F0014008
:10451000194970B5044622F07F460868C1E90023B6
:10452000A6F50013101AB3F5400F4FF000050AD29C
:10453000124B19680A060B0A9219114943F100033C
:10454000C1E90023012503F0C5FEA30003F1804368
:1045500003F58833D3F84025B2420BD11DB94FF48F
:104560000002C3F84025074B4FF4803000FA04F4F2
:10457000C3F8444370BD00BF00060020D40E0020E5
:10458000E80500200010014010B501238340114AC6
:10459000BFF35B8FDC4352E8001F01EA040C42E8E2
:1045A00000CEBEF1000FF6D1BFF35B8F4FF4803227
:1045B00002FA00F002F1804202F58052C2F80803CC
:1045C000BFF35F8FBFF36F8F0B4214BF012000203A
:1045D00010BD00BFD00E00200123124ABFF35B8F35
:1045E000834052E8001F194342E8001CBCF1000F51
:1045F000F7D1BFF35B8F0C4A4FF480338340C2F88E
:1046000004330A4BBFF35B8F1B68BFF35B8F23FA46
:1046100000F0C30742BF064B4FF40032C3F800213D
:10462000704700BFD00E002000100140CC0E0020CB
:1046300000E100E00D4B1B68190A1806BFF35F8FFD
:104640000B4BD3F80435C01841F10001B3F5801FBE
:104650000AD2084BD3E90023994208BF904203D203
:1046600010F1807041F10001704700BFD40E0020AE
:1046700000100140E80500202DE9F04F85B01646F6
:104680001F460546FFF780FF0190FFF7D3FFB942B1
:1046900008BFB0427FD2B6EB000867EB01090023E8
:1046A0004FF080724B4508BF4245C0F08580444BB7
:1046B00003EB0513D3E902239F4208BF964254D06F
:1046C0004FEA85094FF4803B09F1804905F1500814
:1046D0000BFA05F209F588394FEA88081FFA88F8BD
:1046E0000292384AD9F8400526F07F4308F1804805
:1046F00008F588381C469346D2F804A5A0EB0A00BA
:1047000020F07F402AF07F410128C9F8401505D1EB
:104710000393132005F0E7F82A4A039B02990AF154
:10472000020CA4EB0C0020F07F40B0F5000F88BF16
:1047300064460020C8F80000D8F80000CBF8441305
:1047400024F07F40C9F84005DBF80405824506D017
:10475000201A023820F07F40B0F5000F19D8E41A73
:1047600024F07F44321947F10003154C290104EB72
:104770000510C0E902230E9A0F9B6250436000248B
:10478000019B13B12846FFF727FF204605B0BDE87F
:10479000F08F2046B0E701230B4ABFF35B8FAB409D
:1047A00052E8001F194342E800100028F8D1BFF377
:1047B0005B8F32463B46D8E76FF01504E0E700BF59
:1047C000F005002000100140CC0E002073B5194BFD
:1047D000194D00244FF0FF304FF0FF31C5F8084568
:1047E000C3E902014FF48033C5F80433134B0226AA
:1047F0004FF400320121C5F804631120C3F8802171
:104800002246FEF747F91120FEF726F90C4A01234C
:1048100013600C4A2B6013600B4B0C4A00930194FD
:1048200000232046FFF728FF3046FFF707F9204610
:1048300002B070BDF00500200010014000E100E072
:1048400008100140D00E002011450000FFFF7F003E
:104850002DE9F743344CD4F804339A0709D5334B88
:104860001A6832B100221A60314A1B68136801339A
:1048700013604FF02003EFF3118283F31288BFF32C
:104880006F8FD4F80433DB0312D5BFF35B8F294B52
:1048900053E8001F21F0010043E80006002EF7D185
:1048A000BFF35B8F244B002936D11968002933D11F
:1048B000002382F31188BFF36F8F53B3FFF7BAFE63
:1048C00006464FF02003EFF3118083F31288BFF305
:1048D0006F8F1A4BD3E90289494508BF46454FF00F
:1048E00000021ED34FF0FF364FF0FF37D3E900151B
:1048F000C3E902671A604FF48033C4F8483380F389
:104900001188BFF36F8F21B1009542464B460020BE
:10491000884703B0BDE8F083002119601B680123BC
:10492000C7E71146EBE700BF00100140041101404A
:10493000D40E0020CC0E002040110140F0050020D4
:10494000144B13B5B0F1FF3F08BF1846441E002CAE
:104950001EDD9C42A8BF1C46FFF76CFE0E4B0F49A4
:10496000D3E90023801AB0F5000F28BF00240130DE
:10497000044408480091844228BF044612194FF0AD
:104980000000019043F10003FFF776FE02B010BD76
:104990000024E1E7FFFF7F00000600201145000032
:1049A00008B5FFF747FE024B1B68C01A08BD00BFE1
:1049B0000006002008B578B101281CD0144A15491A
:1049C00015484FF44F7304F0EEFB11484FF44F714C
:1049D00004F012FB00200DE031B14FF08043D3F81A
:1049E000183403F003030B604FF08043D3F818042E
:1049F000C0F3004008BD31B14FF08043D3F80C3410
:104A000003F001030B704FF08043D3F80C04EFE781
:104A1000DFA9000087AB0000E09E000010B504464F
:104A200048B90A490A480B4ABD2304F0BCFB0948AF
:104A3000BD2104F0E1FA084B1A7922B90122074896
:104A40001C609A8010BD0648FCE700BF50AA000019
:104A5000E09E000013AA0000D80E00200000AD0B5D
:104A60000C00AD0B08B50B4B1B794BB90A490B4831
:104A70000B4AD62304F097FB0948D62104F0BCFA70
:104A80000020FDF7F9FF18B9BDE80840FDF7E4BFC5
:104A900008BD00BFD80E00205EAA0000E09E000006
:104AA00013AA0000224B1B7913B504465BB92149B8
:104AB0002148224A4FF4897304F075FB1F484FF4D4
:104AC000897104F099FA74B1012C27D01B4A1C4952
:104AD00019484FF4A27304F066FB18484FF4A27112
:104AE00004F08AFA16E001A92046FFF763FF4FF0B1
:104AF000804388B1019A012A0ED1C3F81825114BC1
:104B000000221A601B684FF080430222C3F804237E
:104B100001229A6002B010BD0022EEE70A4B00228B
:104B20001A601B684FF08043C3F804431C60F1E730
:104B3000D80E00205EAA0000E09E000013AA00002C
:104B400087AB0000040100400001004037B52F4D45
:104B50002A7904465AB92E492E482F4A40F24B135F
:104B600004F021FB2C4840F24B1104F045FA7CB1D3
:104B7000012C28D029492748274A40F2671304F01E
:104B800012FB254840F2671104F036FA03B030BD3D
:104B90004FF080430222C3F80823C3F8044103F511
:104BA000827301221B681E4B42F210741A600021AE
:104BB0000846FFF7FFFE0028E8D0012004F07BFD47
:104BC000013CF4D1E2E74FF080430022C3F80843F0
:104BD000C3F8002103F580731B68124B1C608DF82D
:104BE000074042F210740DF107010120FFF7E2FEC9
:104BF00010B900236B71C9E79DF807000128F8D1AF
:104C000004F059FD013CEED1F3E700BFD80E0020BF
:104C10005EAA0000E09E000013AA000087AB00001F
:104C20000C00004004000040164B07B51A686AB13A
:104C300000221A601B684FF080430122C3F808234A
:104C4000114B587910B95A711B6898470F4B1A6865
:104C50006AB10020186001A91B68FFF7ABFE019A3A
:104C60004FF0804332B90122C3F818259A6003B08F
:104C70005DF804FB0222C3F80823034B01201B68E4
:104C80009847F4E700010040D80E002004010040DE
:104C900070B501250368B3FA83F2202AC2F11F041C
:104CA00014D0BFF35B8F05FA04F223EA020250E846
:104CB000006F9E4204D140E8002CBCF1000FF6D1F9
:104CC000BFF35B8FE6D102480C7070BD0148FCE772
:104CD0000000AD0B0200AD0B0368CB40DB0710B545
:104CE00015D4012303FA01F10368BFF35B8F41EA96
:104CF000030250E8004F9C4204D140E8002CBCF174
:104D0000000FF6D1BFF35B8FEED1024810BD024811
:104D1000FCE700BF0000AD0B0400AD0B054B0830F5
:104D200033F8100000F02200A0F12203584258414D
:104D3000704700BF0C01002070B500F108030C4C57
:104D400034F81330DA0505460E4607D5C3F343237E
:104D500004EBC30254F8333052689847A3682BB170
:104D6000E26831462846BDE87040184770BD00BF74
:104D70000C010020194B083010B533F81020D10574
:104D80001DD5C2F3432122F4F85223F8102003F179
:104D90001004002034F8022B12F4807F03D0C2F3F9
:104DA000432291420BD001303028F3D1002243F846
:104DB00031200B48FFF790FF0A4B984200D110BDFD
:104DC00009490A480A4A4FF4997304F0ECF9BDE81E
:104DD000104007484FF4997104F00EB90C010020FF
:104DE000800100200000AD0BE0AA0000E09E000062
:104DF0007CAA000038B50A4C00F1080534F81530DB
:104E00009A0606D55B0B074A03F5A273002142F808
:104E10002310FFF7AFFF002324F8153038BD00BF83
:104E20000C0100200060004010B50446006804F04A
:104E300044FC58B912491348134A40F2292304F09C
:104E4000B2F9114840F2292104F0D6F8236803F0A2
:104E50001F025B0922600DD0012B0ED00B490948BF
:104E6000094A40F22E2304F09EF9074840F22E2111
:104E700004F0C2F84FF0A04010BD0548FCE700BFA9
:104E8000A7A90000E09E000074A9000087AB000005
:104E900000030050F0B5044685B017461D46F1B139
:104EA000FFF73CFF10B14A4805B0F0BD0B46CDE915
:104EB00000008DF80E008DF80F000DF10F020DF1BE
:104EC0000E01204604F00EFC424A04F1080132F8BB
:104ED000113023F0020343F0010322F8113097B19F
:104EE0003C4B3E787A6804F1080033F810108F07C5
:104EF0000CD5002AD7D133F8102022F01C0242EA48
:104F0000860223F81020CDBB3348CDE721F02001E5
:104F1000C904C90C23F81010002AECD0032EC2D803
:104F200017782EB92D4A07F5A27142F82160E2E701
:104F3000BA0002F1804202F5C04241EA4731D2F89C
:104F400010C52CF0030CC2F810C5D2F810C52CF413
:104F50004F3C2CF4407CC2F810C5D2F810E54FEA63
:104F6000042C0CF47C5C4EEA064E4CEA0E0C41F02C
:104F7000200123F81010C2F810C5BCE7D5E900677E
:104F80002046FFF7F7FE002EBED0124D2B689E4242
:104F900004D16B689F4201D100220AE010480DF154
:104FA0000F01FFF775FE0C4B98427FF47DAF9DF823
:104FB0000F2045F8326005EBC20308345F6035F816
:104FC000143043EA422343F4807325F814309BE7FE
:104FD0000400AD0B0C0100200000AD0B0060004090
:104FE00080010020F0B5044685B0154609B300F1F4
:104FF0000807314E36F81730980701D49A0658D46E
:1050000013F01C0F02D04B78012B52D001238DF8E6
:105010000F300023CDE900134A1C8B1C20460DF1F4
:105020000F0104F05FFB36F8173043F0030326F856
:10503000173015B9214805B0F0BD1F4E04F108071F
:1050400036F81700830734D595F800C0614689000B
:1050500020F0200001F18041C00401F5C041C00CE6
:1050600026F817000023C1F810356A78002AE1D02D
:10507000D1F81035AD7823F4991323F4F853C1F81F
:105080001035D1F810E5230203F47C53120443EAEF
:105090000E0302F440322D05134305F4801540EA57
:1050A0004C302B4340F0200026F81700C1F8103593
:1050B000C0E70348BFE700BF0C0100200000AD0BB4
:1050C0000400AD0B014BC3E9020170470C01002045
:1050D00038B504460D4659B90B490C480C4A40F204
:1050E000352304F060F80A4840F2352103F084FFCC
:1050F0000834084B33F814309A0643BF5B0B2B700F
:105100000548064838BD00BFF4AA0000E09E000034
:105110007CAA00000C0100200000AD0B0400AD0BC8
:1051200038B50E4C94F87850B5B96022294604F190
:10513000100004F091F80620FDF78EFC084B09489A
:105140001D601B68084B4FF00042C3F80423012385
:1051500084F87830636738BD0448FCE70C01002010
:105160007C6100400000AD0B006000400500AD0B0D
:10517000034B93F87800003818BF0120704700BF38
:105180000C01002001460148FFF7A6BD7C0100206C
:1051900001460148FFF77CBD7C010020F7B5314D89
:1051A00000F10807044635F8173013F01C0F0E46BF
:1051B0000BD12D492D482E4A40F2DF3303F0F3FF87
:1051C0002B4840F2DF3103F017FF35F81700830654
:1051D0001FD510F002031CD1410B084604F07EFAE3
:1051E00000F1804000F5C040036003688B0003F1CC
:1051F000804303F5C043D3F8102542F00102C3F801
:10520000102526B11B4A01238B40C2F8043303B09A
:10521000F0BD5EB918491548154A40F2EE3303F067
:10522000C2FF134840F2EE3103F0E6FE35F81730C6
:10523000C3F38203042B10D0052B10D001A80194D6
:10524000FFF7F2FD019BD0F81015D94001F00101E4
:105250000231204604F091FAD9E70321F9E702214F
:10526000F7E700BF0C010020FEAA0000E09E00004E
:105270007CAA00000060004013AB00000E4B00F160
:10528000080233F81230990613D59A0711D45B0B34
:1052900001229A409B00094903F1804303F5C04372
:1052A000C1F80823D3F8102522F00302C3F8102513
:1052B0007047002104F061BA0C010020006000403A
:1052C0000E4B00F1080213B513F81230DB07044649
:1052D00011D5FFF7D3FF2046FFF78CFD01A80194FD
:1052E000FFF7A2FD019B03F5E073022240F82320A3
:1052F000034802B010BD0348FBE700BF0C010020CB
:105300000000AD0B0400AD0B2DE9F04F654B664876
:105310006649002589B001222C461E6836B1D0F8B6
:10532000046316421EBF1C601E68154304338B4283
:105330004FEA4202F1D15E4F3B687BB34FF0A0438E
:105340005C4ED3F820250692C3F82025D6F82035E8
:105350000793C6F8203501960DF118094FF00008A3
:105360004FF0010BD9F80030F3B908F12008B8F17B
:10537000400F09F10409F5D13B603B6801994FF0FA
:10538000A043D3F820250692C3F82025019BD3F82B
:1053900020350793C1F820351343DDD10124002DBA
:1053A00068D109B0BDE8F08F93FAA3F3B3FA83F3A1
:1053B00008EB030606F108023F4B059633F812206E
:1053C000C2F38203F40802939A4606AB06F0070084
:1053D0000BFA00FC185D20EA0C001855910805A88E
:1053E0000391FFF721FD059C039904F5E0744B0739
:1053F00050F82440C4F3014423D551463046FFF70A
:105400009BFC05A80596FFF70FFD059A02F5E072D3
:10541000E4B250F82220C2F30142944207D10021A5
:10542000304604F0AAF92146304604F0A6F905A852
:105430000596FFF7F9FC059B0BFA03F3C0F820353E
:1054400090E7022C0CBF03210221304604F095F9AD
:10545000029B032B04D0022C07D1BAF1010FE6D135
:1054600051463046FFF768FCE1E7032CDFD1BAF183
:10547000020FF4E795FAA5F3B3FA83F304FA03F203
:105480009B0003F1804303F5C04325EA0205D3F8EE
:105490001005D3F81015C0F30520C1F30141FFF743
:1054A0004BFC7CE700610040006000402061004050
:1054B0007C610040000300500C01002001460148BF
:1054C000FFF7E6BB880100202DE9F04104460E46B7
:1054D00015465AB932493348334A40F2A72303F0FC
:1054E00062FE314840F2A72103F086FD2F685FB9C4
:1054F0002E492C482C4A4FF42D7303F054FE2A48B1
:105500004FF42D7103F078FD04EB4618C8F82075B0
:10551000AF88002F38D12649234A224840F2BD23C4
:1055200003F041FE40F2BD211F4803F065FDC8F8BD
:105530002475AF68B7F1807F0BD31E4919481A4A0A
:1055400040F2C72303F02FFE174840F2C72103F0B3
:1055500053FDED684FEA461804EB4616B5F1807F1F
:10556000C6F828750BD314490E480F4A4FF434730C
:1055700003F019FE0C484FF4347103F03DFD444430
:10558000C4F82C55BDE8F0813B04D0D50B49064A40
:10559000044840F2BE2303F006FE40F2BE21C3E7FA
:1055A00050AB0000E09E00001EAB000065AB0000A9
:1055B0007DAB0000A7AB0000C8AB000089AB0000CA
:1055C0000268530910B504462CD0012B4FF6FF7327
:1055D00018BF002302F01F02D340DB070BD414498D
:1055E0001448154A40F2292303F0DDFD124840F229
:1055F000292103F001FD236803F01F025B092260EB
:105600000DD0012B11D00D490A480B4A40F22E2330
:1056100003F0C9FD084840F22E2103F0EDFC4FF0E5
:10562000A04010BD4FF0FF33D4E70548F9E700BFB5
:10563000A7A90000E09E000074A9000087AB00004D
:10564000000300502DE9F04F064687B0914698467A
:105650000C4649B959495A485A4A8C2303F0A3FDCC
:1056600058488C2103F0C8FC3779574D0C217943F9
:105670006B181A7A002A40F09F80227B45F801902F
:10568000C3F804809A72002A4DD0637B002B4AD065
:10569000D6F80080B4F808900123C8F80035B4F9B2
:1056A000083094F805B094F806A0002B0BDA4749AF
:1056B0004348474A4FF4277303F075FD44484FF4BD
:1056C000277103F099FCC8F80CB53068C8F804A538
:1056D000C8F808956389C0F810350023C0F8003277
:1056E000C0F80033C0F81C31D0F81C21C0F81031CC
:1056F000D0F81021C0F81431D0F81421C0F80431CA
:10570000D0F804310C237B43EB581BB140F3073036
:10571000FDF7A2F90C2303FB07552E4801232B723A
:1057200007B0BDE8F08F04F1FF390DF1080804F16E
:10573000030A19F8012FFF2A39D0217B22F0800BB0
:10574000C8F800B0B1B91306CDF804B001A826D44A
:10575000FFF736FF019901228A40C0F80C2501A805
:10576000CDF804B0FFF72CFF019B03F5E073032293
:1057700040F82320D14508F10408DAD1637B002BDF
:1057800086D13368029AC3F86025039AC3F864256A
:10579000049AC3F86825059AC3F86C2578E7FFF7E3
:1057A0000FFF019901228A40C0F80825D7E74FF082
:1057B000FF33C8F80030DDE70748B1E726AC00004A
:1057C000E09E0000EBAB0000E00E00202FAC0000DC
:1057D0001EAB00000000AD0B0500AD0B2DE9F04144
:1057E000984603791446314A0E4603EB430102EB17
:1057F00081070C2101FB032305461B7A5BB92C4969
:105800002C482D4A4FF4967303F0CDFC2A484FF4F0
:10581000967103F0F1FB5CB928492648264A40F20C
:105820002D1303F0C0FC244840F22D1103F0E4FBDB
:10583000336803F06043B3F1005F0BD020491D488B
:105840001D4A4FF4977303F0AEFC1B484FF4977159
:1058500003F0D2FB286832460021FFF735FE2868A6
:1058600032460121FFF730FE286804F0010303EB04
:10587000540418F0010FC0F8144514D118F00202B6
:1058800003D0002B14BF08220422002BC0F80022F2
:1058900039465FFA88F218BF0C23BDE8F04108BF13
:1058A000082303F079BF1022EFE700BFE00E0020CD
:1058B00050AC0000E09E0000EBAB00007CAC0000B0
:1058C0008FAC000070B5124E04790C2202FB04620A
:1058D0000546127A5AB90F490F48104A4FF4D5734A
:1058E00003F061FC0D484FF4D57103F085FB0C23E8
:1058F0002A6803FB0464237AD2F80421DBB21AB9C4
:10590000981E18BF012070BD01202072FBE700BF68
:10591000E00E002050AC0000E09E0000EBAB000069
:1059200038B5144A03790D460C2101FB03230446C4
:105930001B7A5BB910491148114A40F2851303F0F4
:1059400032FC0F4840F2851103F056FB2368002219
:10595000C3F8002201225A602046FFF7B3FF38B98E
:105960002046FFF7AFFF18B9002DF9D1284638BD02
:105970000125FBE7E00E0020B8AC0000E09E00002F
:10598000EBAB0000034B1868A0F1080358425841E4
:10599000704700BF30010010064B1B68082B06D172
:1059A000054B1B68052B02D8044AD05C70470020C9
:1059B000704700BF300100103401001003AD00003B
:1059C000024AD2F80034002BFBD0704700E00140BF
:1059D00010B5FFF7D7FF40B14FF080430022C3F866
:1059E0000C21C3F81021C3F83825FFF7CBFF00289E
:1059F00046D04FF080525B4BD2F80414C3F8201508
:105A0000D2F80814C3F82415D2F80C14C3F82815DA
:105A1000D2F81014C3F82C15D2F81414C3F83015AA
:105A2000D2F81814C3F83415D2F81C14C3F8401572
:105A3000D2F82014C3F84415D2F82414C3F848153A
:105A4000D2F82814C3F84C15D2F82C14C3F850150A
:105A5000D2F83014C3F85415D2F83414C3F86015D2
:105A6000D2F83814C3F86415D2F83C14C3F868159A
:105A7000D2F84014C3F86C15D2F84424C3F870254A
:105A8000FFF78AFF10B1384B384A1A60FFF784FFDE
:105A900018B1374BFB22C3F81825FFF77DFF48B13B
:105AA0003449354B0A681B6822F00F0203F00F03DC
:105AB00013430B60FFF770FF18B1304B4FF40072C7
:105AC0001A60FFF75FFF48B14FF08043D3F800241E
:105AD000D20744BF6FF00102C3F80024284B1B68B3
